{
  "contractName": "Anonymous",
  "abi": [
    {
      "constant": true,
      "inputs": [],
      "name": "data",
      "outputs": [
        {
          "name": "",
          "type": "uint256"
        }
      ],
      "payable": false,
      "stateMutability": "view",
      "type": "function"
    },
    {
      "payable": true,
      "stateMutability": "payable",
      "type": "fallback"
    },
    {
      "constant": false,
      "inputs": [
        {
          "name": "_data",
          "type": "uint256"
        }
      ],
      "name": "setData",
      "outputs": [],
      "payable": false,
      "stateMutability": "nonpayable",
      "type": "function"
    }
  ],
  "bytecode": "0x608060405234801561001057600080fd5b5060d98061001f6000396000f3006080604052600436106049576000357c0100000000000000000000000000000000000000000000000000000000900463ffffffff1680635b4b73a914604b57806373d4a13a146075575b005b348015605657600080fd5b50607360048036038101908080359060200190929190505050609d565b005b348015608057600080fd5b50608760a7565b6040518082815260200191505060405180910390f35b8060008190555050565b600054815600a165627a7a72305820dc0169d25679ad4a9849c79b9183e7c391cacfc481b39bcce529719dca5ba3da0029",
  "source": "pragma solidity ^0.4.23;\r\n\r\ncontract Anonymous\r\n{\r\n    uint public data;\r\n\r\n    function setData(uint _data) public \r\n    {\r\n        data = _data;\r\n    }\r\n\r\n    function() public payable {}\r\n}",
  "sourcePath": "D:\\ETH All\\BitLott2\\BitLottery\\contracts\\Anonymous.sol",
  "compiler": {
    "name": "solc",
    "version": "0.4.24+commit.e67f0147.Emscripten.clang"
  },
  "schemaVersion": "2.0.0",
  "updatedAt": "2018-07-02T11:16:04.517Z"
}