{
  "contractName": "Clock",
  "abi": [
    {
      "constant": true,
      "inputs": [],
      "name": "getNow",
      "outputs": [
        {
          "name": "",
          "type": "uint256"
        }
      ],
      "payable": false,
      "stateMutability": "view",
      "type": "function"
    },
    {
      "constant": false,
      "inputs": [
        {
          "name": "_time",
          "type": "uint256"
        }
      ],
      "name": "setNow",
      "outputs": [],
      "payable": false,
      "stateMutability": "nonpayable",
      "type": "function"
    }
  ],
  "bytecode": "0x608060405234801561001057600080fd5b5060f18061001f6000396000f3006080604052600436106049576000357c0100000000000000000000000000000000000000000000000000000000900463ffffffff168063bbe4fd5014604e578063e380ae96146076575b600080fd5b348015605957600080fd5b50606060a0565b6040518082815260200191505060405180910390f35b348015608157600080fd5b50609e6004803603810190808035906020019092919050505060bb565b005b600080600054111560b457600054905060b8565b4290505b90565b80600081905550505600a165627a7a7230582061bc777a133326c85912c2e597ea57809bfdb45c0befaa9c9780eb89a83290f70029",
  "source": "pragma solidity ^0.4.23;\r\n\r\ncontract Clock\r\n{\r\n    uint private timestamp;\r\n\r\n    function getNow() public view returns(uint)\r\n    {\r\n        if(timestamp > 0)\r\n        {\r\n            return timestamp;\r\n        }\r\n\r\n        return now;\r\n    }\r\n\r\n    function setNow(uint _time) public\r\n    {\r\n        timestamp = _time;\r\n    }\r\n\r\n}",
  "sourcePath": "D:\\ETH All\\BitLott2\\BitLottery\\contracts\\Clock.sol",
  "compiler": {
    "name": "solc",
    "version": "0.4.24+commit.e67f0147.Emscripten.clang"
  },
  "schemaVersion": "2.0.0",
  "updatedAt": "2018-07-02T11:16:04.518Z"
}