{
  "contractName": "LotteryContract",
  "abi": [
    {
      "constant": true,
      "inputs": [],
      "name": "campaignEndTime",
      "outputs": [
        {
          "name": "",
          "type": "uint256"
        }
      ],
      "payable": false,
      "stateMutability": "view",
      "type": "function"
    },
    {
      "constant": true,
      "inputs": [],
      "name": "campaignStartTime",
      "outputs": [
        {
          "name": "",
          "type": "uint256"
        }
      ],
      "payable": false,
      "stateMutability": "view",
      "type": "function"
    },
    {
      "constant": true,
      "inputs": [],
      "name": "totalMaintananceAmount",
      "outputs": [
        {
          "name": "",
          "type": "uint256"
        }
      ],
      "payable": false,
      "stateMutability": "view",
      "type": "function"
    },
    {
      "constant": true,
      "inputs": [],
      "name": "totalWinningAmount",
      "outputs": [
        {
          "name": "",
          "type": "uint256"
        }
      ],
      "payable": false,
      "stateMutability": "view",
      "type": "function"
    },
    {
      "constant": true,
      "inputs": [],
      "name": "random",
      "outputs": [
        {
          "name": "",
          "type": "address"
        }
      ],
      "payable": false,
      "stateMutability": "view",
      "type": "function"
    },
    {
      "constant": true,
      "inputs": [],
      "name": "owner",
      "outputs": [
        {
          "name": "",
          "type": "address"
        }
      ],
      "payable": false,
      "stateMutability": "view",
      "type": "function"
    },
    {
      "constant": true,
      "inputs": [],
      "name": "campaignId",
      "outputs": [
        {
          "name": "",
          "type": "uint256"
        }
      ],
      "payable": false,
      "stateMutability": "view",
      "type": "function"
    },
    {
      "constant": true,
      "inputs": [],
      "name": "clock",
      "outputs": [
        {
          "name": "",
          "type": "address"
        }
      ],
      "payable": false,
      "stateMutability": "view",
      "type": "function"
    },
    {
      "constant": true,
      "inputs": [],
      "name": "actualTicketPrice",
      "outputs": [
        {
          "name": "",
          "type": "uint256"
        }
      ],
      "payable": false,
      "stateMutability": "view",
      "type": "function"
    },
    {
      "constant": true,
      "inputs": [
        {
          "name": "",
          "type": "address"
        }
      ],
      "name": "winnerBalances",
      "outputs": [
        {
          "name": "",
          "type": "uint256"
        }
      ],
      "payable": false,
      "stateMutability": "view",
      "type": "function"
    },
    {
      "constant": true,
      "inputs": [],
      "name": "campaignDuration",
      "outputs": [
        {
          "name": "",
          "type": "uint256"
        }
      ],
      "payable": false,
      "stateMutability": "view",
      "type": "function"
    },
    {
      "constant": true,
      "inputs": [
        {
          "name": "",
          "type": "uint256"
        }
      ],
      "name": "allLottery",
      "outputs": [
        {
          "name": "campaignId",
          "type": "uint256"
        },
        {
          "name": "number",
          "type": "uint256"
        },
        {
          "name": "price",
          "type": "uint256"
        },
        {
          "name": "lotteryOwner",
          "type": "address"
        }
      ],
      "payable": false,
      "stateMutability": "view",
      "type": "function"
    },
    {
      "constant": true,
      "inputs": [],
      "name": "totalFromFallback",
      "outputs": [
        {
          "name": "",
          "type": "uint256"
        }
      ],
      "payable": false,
      "stateMutability": "view",
      "type": "function"
    },
    {
      "constant": true,
      "inputs": [],
      "name": "isContractUnlocked",
      "outputs": [
        {
          "name": "",
          "type": "bool"
        }
      ],
      "payable": false,
      "stateMutability": "view",
      "type": "function"
    },
    {
      "constant": true,
      "inputs": [],
      "name": "campaignTicketPrice",
      "outputs": [
        {
          "name": "",
          "type": "uint256"
        }
      ],
      "payable": false,
      "stateMutability": "view",
      "type": "function"
    },
    {
      "inputs": [
        {
          "name": "_clockAddress",
          "type": "address"
        },
        {
          "name": "_randomAddress",
          "type": "address"
        }
      ],
      "payable": false,
      "stateMutability": "nonpayable",
      "type": "constructor"
    },
    {
      "payable": true,
      "stateMutability": "payable",
      "type": "fallback"
    },
    {
      "anonymous": false,
      "inputs": [
        {
          "indexed": false,
          "name": "contractOwner",
          "type": "address"
        },
        {
          "indexed": false,
          "name": "isContractUnlocked",
          "type": "bool"
        }
      ],
      "name": "EventSetupFirstTimeFinish",
      "type": "event"
    },
    {
      "anonymous": false,
      "inputs": [
        {
          "indexed": false,
          "name": "winner",
          "type": "address"
        },
        {
          "indexed": false,
          "name": "lotteryNumber",
          "type": "uint256"
        },
        {
          "indexed": false,
          "name": "campaignId",
          "type": "uint256"
        }
      ],
      "name": "EventFoundWinner",
      "type": "event"
    },
    {
      "anonymous": false,
      "inputs": [
        {
          "indexed": false,
          "name": "buyer",
          "type": "address"
        },
        {
          "indexed": false,
          "name": "lotteryNumber",
          "type": "uint256"
        },
        {
          "indexed": false,
          "name": "campaignId",
          "type": "uint256"
        },
        {
          "indexed": false,
          "name": "ticketPrice",
          "type": "uint256"
        },
        {
          "indexed": false,
          "name": "totalLotteryAmount",
          "type": "uint256"
        }
      ],
      "name": "EventBoughtTicket",
      "type": "event"
    },
    {
      "anonymous": false,
      "inputs": [
        {
          "indexed": false,
          "name": "campaignId",
          "type": "uint256"
        },
        {
          "indexed": false,
          "name": "campaignStartTime",
          "type": "uint256"
        },
        {
          "indexed": false,
          "name": "campaignDuration",
          "type": "uint256"
        },
        {
          "indexed": false,
          "name": "ticketPrice",
          "type": "uint256"
        }
      ],
      "name": "EventStartNewCampaign",
      "type": "event"
    },
    {
      "anonymous": false,
      "inputs": [
        {
          "indexed": false,
          "name": "campaignId",
          "type": "uint256"
        },
        {
          "indexed": false,
          "name": "stopTime",
          "type": "uint256"
        },
        {
          "indexed": false,
          "name": "totalAmount",
          "type": "uint256"
        }
      ],
      "name": "EventStopCurrentCampaign",
      "type": "event"
    },
    {
      "anonymous": false,
      "inputs": [
        {
          "indexed": false,
          "name": "winner",
          "type": "address"
        },
        {
          "indexed": false,
          "name": "amount",
          "type": "uint256"
        },
        {
          "indexed": false,
          "name": "withdrawTime",
          "type": "uint256"
        }
      ],
      "name": "EventWinnerWithdrawMoney",
      "type": "event"
    },
    {
      "anonymous": false,
      "inputs": [
        {
          "indexed": false,
          "name": "developerAddress",
          "type": "address"
        },
        {
          "indexed": false,
          "name": "amount",
          "type": "uint256"
        },
        {
          "indexed": false,
          "name": "withdrawTime",
          "type": "uint256"
        }
      ],
      "name": "EventDeveloperWithdrawMoney",
      "type": "event"
    },
    {
      "anonymous": false,
      "inputs": [
        {
          "indexed": false,
          "name": "campaignId",
          "type": "uint256"
        },
        {
          "indexed": false,
          "name": "randomNumber",
          "type": "uint256"
        },
        {
          "indexed": false,
          "name": "time",
          "type": "uint256"
        }
      ],
      "name": "EventFoundRandomNumber",
      "type": "event"
    },
    {
      "anonymous": false,
      "inputs": [
        {
          "indexed": false,
          "name": "campaignId",
          "type": "uint256"
        },
        {
          "indexed": false,
          "name": "campaignStartTime",
          "type": "uint256"
        },
        {
          "indexed": false,
          "name": "campaignDuration",
          "type": "uint256"
        },
        {
          "indexed": false,
          "name": "campaignEndTime",
          "type": "uint256"
        },
        {
          "indexed": false,
          "name": "campaignTicketPrice",
          "type": "uint256"
        },
        {
          "indexed": false,
          "name": "campaignTotalAmount",
          "type": "uint256"
        },
        {
          "indexed": false,
          "name": "lotteryCount",
          "type": "uint256"
        }
      ],
      "name": "EventGetAllInfo",
      "type": "event"
    },
    {
      "anonymous": false,
      "inputs": [
        {
          "indexed": false,
          "name": "sender",
          "type": "address"
        },
        {
          "indexed": false,
          "name": "amount",
          "type": "uint256"
        }
      ],
      "name": "EventFallback",
      "type": "event"
    },
    {
      "constant": false,
      "inputs": [],
      "name": "setupContractFirstTime",
      "outputs": [],
      "payable": false,
      "stateMutability": "nonpayable",
      "type": "function"
    },
    {
      "constant": false,
      "inputs": [],
      "name": "startNewCampaign",
      "outputs": [
        {
          "name": "",
          "type": "bool"
        }
      ],
      "payable": false,
      "stateMutability": "nonpayable",
      "type": "function"
    },
    {
      "constant": false,
      "inputs": [
        {
          "name": "_lotteryNumber",
          "type": "uint256"
        }
      ],
      "name": "buyLottery",
      "outputs": [],
      "payable": true,
      "stateMutability": "payable",
      "type": "function"
    },
    {
      "constant": false,
      "inputs": [],
      "name": "withdrawWinnerMoney",
      "outputs": [],
      "payable": false,
      "stateMutability": "nonpayable",
      "type": "function"
    },
    {
      "constant": false,
      "inputs": [
        {
          "name": "_developerAddress",
          "type": "address"
        }
      ],
      "name": "withdrawDeveloperMoney",
      "outputs": [],
      "payable": false,
      "stateMutability": "nonpayable",
      "type": "function"
    },
    {
      "constant": true,
      "inputs": [],
      "name": "getCurrentCampaignInfo",
      "outputs": [
        {
          "name": "",
          "type": "uint256"
        }
      ],
      "payable": false,
      "stateMutability": "view",
      "type": "function"
    },
    {
      "constant": false,
      "inputs": [
        {
          "name": "_newPrice",
          "type": "uint256"
        },
        {
          "name": "_newActualPrice",
          "type": "uint256"
        }
      ],
      "name": "updateTicketPrice",
      "outputs": [],
      "payable": false,
      "stateMutability": "nonpayable",
      "type": "function"
    },
    {
      "constant": false,
      "inputs": [
        {
          "name": "_newDuration",
          "type": "uint256"
        }
      ],
      "name": "updateCampaignDuration",
      "outputs": [],
      "payable": false,
      "stateMutability": "nonpayable",
      "type": "function"
    },
    {
      "constant": true,
      "inputs": [],
      "name": "_isCampaignEnd",
      "outputs": [
        {
          "name": "",
          "type": "bool"
        }
      ],
      "payable": false,
      "stateMutability": "view",
      "type": "function"
    },
    {
      "constant": true,
      "inputs": [],
      "name": "_findWinningNumber",
      "outputs": [
        {
          "name": "",
          "type": "uint256"
        }
      ],
      "payable": false,
      "stateMutability": "view",
      "type": "function"
    },
    {
      "constant": true,
      "inputs": [],
      "name": "_getTicketCount",
      "outputs": [
        {
          "name": "",
          "type": "uint256"
        }
      ],
      "payable": false,
      "stateMutability": "view",
      "type": "function"
    }
  ],
  "bytecode": "0x608060405260006001556000600c60146101000a81548160ff02191690831515021790555034801561003057600080fd5b506040516040806116168339810180604052810190808051906020019092919080519060200190929190505050336000806101000a81548173ffffffffffffffffffffffffffffffffffffffff021916908373ffffffffffffffffffffffffffffffffffffffff16021790555081600b60006101000a81548173ffffffffffffffffffffffffffffffffffffffff021916908373ffffffffffffffffffffffffffffffffffffffff16021790555080600c60006101000a81548173ffffffffffffffffffffffffffffffffffffffff021916908373ffffffffffffffffffffffffffffffffffffffff1602179055506203f480600281905550662386f26fc10000600581905550661ff973cafa800060068190555050506114c0806101566000396000f300608060405260043610610154576000357c0100000000000000000000000000000000000000000000000000000000900463ffffffff16806312498a70146101d157806313e7b33e146101fc5780632c49f35e146102275780635a6e1a6d1461025e5780635ab32824146102895780635c328126146102b85780635ec01e4d146102e35780636160294d1461033a5780636ce31846146103675780637da20567146103aa5780638da5cb5b146103c15780638ed5b0fc146104185780639122cdf51461044357806391ddadf41461046e578063a9489a3e146104c5578063aaa08a0c146104f0578063c37a043a14610507578063c398d56d1461055e578063c548e08214610589578063c72a0bb91461060b578063cfab98cb14610636578063d195e87f14610661578063eca2ecad14610690578063f56f8e2e146106bb578063f70ad05f146106e6578063ff2156c514610715575b34600d600082825401925050819055507f043d5f1507f6a599d8da1a60b5d9337b40d244bbf9f87aeea728f03646260c053334604051808373ffffffffffffffffffffffffffffffffffffffff1673ffffffffffffffffffffffffffffffffffffffff1681526020018281526020019250505060405180910390a1005b3480156101dd57600080fd5b506101e6610735565b6040518082815260200191505060405180910390f35b34801561020857600080fd5b5061021161073b565b6040518082815260200191505060405180910390f35b34801561023357600080fd5b5061025c6004803603810190808035906020019092919080359060200190929190505050610741565b005b34801561026a57600080fd5b506102736107c8565b6040518082815260200191505060405180910390f35b34801561029557600080fd5b5061029e6107ce565b604051808215151515815260200191505060405180910390f35b3480156102c457600080fd5b506102cd610a9c565b6040518082815260200191505060405180910390f35b3480156102ef57600080fd5b506102f8610aa2565b604051808273ffffffffffffffffffffffffffffffffffffffff1673ffffffffffffffffffffffffffffffffffffffff16815260200191505060405180910390f35b34801561034657600080fd5b5061036560048036038101908080359060200190929190505050610ac8565b005b34801561037357600080fd5b506103a8600480360381019080803573ffffffffffffffffffffffffffffffffffffffff169060200190929190505050610b2d565b005b3480156103b657600080fd5b506103bf610ca2565b005b3480156103cd57600080fd5b506103d6610da9565b604051808273ffffffffffffffffffffffffffffffffffffffff1673ffffffffffffffffffffffffffffffffffffffff16815260200191505060405180910390f35b34801561042457600080fd5b5061042d610dce565b6040518082815260200191505060405180910390f35b34801561044f57600080fd5b50610458610dd4565b6040518082815260200191505060405180910390f35b34801561047a57600080fd5b50610483610ed9565b604051808273ffffffffffffffffffffffffffffffffffffffff1673ffffffffffffffffffffffffffffffffffffffff16815260200191505060405180910390f35b3480156104d157600080fd5b506104da610eff565b6040518082815260200191505060405180910390f35b3480156104fc57600080fd5b50610505610f05565b005b34801561051357600080fd5b50610548600480360381019080803573ffffffffffffffffffffffffffffffffffffffff1690602001909291905050506110cc565b6040518082815260200191505060405180910390f35b34801561056a57600080fd5b506105736110e4565b6040518082815260200191505060405180910390f35b34801561059557600080fd5b506105b4600480360381019080803590602001909291905050506110ea565b604051808581526020018481526020018381526020018273ffffffffffffffffffffffffffffffffffffffff1673ffffffffffffffffffffffffffffffffffffffff16815260200194505050505060405180910390f35b34801561061757600080fd5b50610620611149565b6040518082815260200191505060405180910390f35b34801561064257600080fd5b5061064b61114f565b6040518082815260200191505060405180910390f35b34801561066d57600080fd5b506106766111d1565b604051808215151515815260200191505060405180910390f35b34801561069c57600080fd5b506106a56111e4565b6040518082815260200191505060405180910390f35b3480156106c757600080fd5b506106d06111f1565b6040518082815260200191505060405180910390f35b3480156106f257600080fd5b506106fb6111f7565b604051808215151515815260200191505060405180910390f35b610733600480360381019080803590602001909291905050506112c4565b005b60045481565b60035481565b6000809054906101000a900473ffffffffffffffffffffffffffffffffffffffff1673ffffffffffffffffffffffffffffffffffffffff163373ffffffffffffffffffffffffffffffffffffffff1614151561079c57600080fd5b600115156107a86111f7565b15151415156107b657600080fd5b81600581905550806006819055505050565b60085481565b60008060009054906101000a900473ffffffffffffffffffffffffffffffffffffffff1673ffffffffffffffffffffffffffffffffffffffff163373ffffffffffffffffffffffffffffffffffffffff1614151561082b57600080fd5b60011515600c60149054906101000a900460ff16151514151561084d57600080fd5b600115156108596111f7565b151514151561086757600080fd5b600060025411151561087857600080fd5b600060055411151561088957600080fd5b60016000815480929190600101919050555060006001541115156108ac57600080fd5b600b60009054906101000a900473ffffffffffffffffffffffffffffffffffffffff1673ffffffffffffffffffffffffffffffffffffffff1663bbe4fd506040518163ffffffff167c0100000000000000000000000000000000000000000000000000000000028152600401602060405180830381600087803b15801561093257600080fd5b505af1158015610946573d6000803e3d6000fd5b505050506040513d602081101561095c57600080fd5b8101908080519060200190929190505050600381905550600254600b60009054906101000a900473ffffffffffffffffffffffffffffffffffffffff1673ffffffffffffffffffffffffffffffffffffffff1663bbe4fd506040518163ffffffff167c0100000000000000000000000000000000000000000000000000000000028152600401602060405180830381600087803b1580156109fc57600080fd5b505af1158015610a10573d6000803e3d6000fd5b505050506040513d6020811015610a2657600080fd5b8101908080519060200190929190505050016004819055507f68e93fdc31358d1913ff29a3dbf77eea73fcac4db656a2a19e6145289b696f9c6001546003546002546005546040518085815260200184815260200183815260200182815260200194505050505060405180910390a16001905090565b60075481565b600c60009054906101000a900473ffffffffffffffffffffffffffffffffffffffff1681565b6000809054906101000a900473ffffffffffffffffffffffffffffffffffffffff1673ffffffffffffffffffffffffffffffffffffffff163373ffffffffffffffffffffffffffffffffffffffff16141515610b2357600080fd5b8060028190555050565b60008060009054906101000a900473ffffffffffffffffffffffffffffffffffffffff1673ffffffffffffffffffffffffffffffffffffffff163373ffffffffffffffffffffffffffffffffffffffff16141515610b8a57600080fd5b600073ffffffffffffffffffffffffffffffffffffffff168273ffffffffffffffffffffffffffffffffffffffff1614151515610bc657600080fd5b6000600854111515610bd757600080fd5b600854905060006008819055508173ffffffffffffffffffffffffffffffffffffffff166108fc829081150290604051600060405180830381858888f19350505050158015610c2a573d6000803e3d6000fd5b507ff5eee63679700ef4d678ca9efaed3ba6320bebaba948b8c0f708d03f1ab11f1e828242604051808473ffffffffffffffffffffffffffffffffffffffff1673ffffffffffffffffffffffffffffffffffffffff168152602001838152602001828152602001935050505060405180910390a15050565b6000809054906101000a900473ffffffffffffffffffffffffffffffffffffffff1673ffffffffffffffffffffffffffffffffffffffff163373ffffffffffffffffffffffffffffffffffffffff16141515610cfd57600080fd5b6000600154141515610d0e57600080fd5b6001600c60146101000a81548160ff0219169083151502179055507f7d23394cde1068bc959c21674f2a9fdb1e414937cf5dfd8c4dd7c3bf40c897f733600c60149054906101000a900460ff16604051808373ffffffffffffffffffffffffffffffffffffffff1673ffffffffffffffffffffffffffffffffffffffff168152602001821515151581526020019250505060405180910390a1565b6000809054906101000a900473ffffffffffffffffffffffffffffffffffffffff1681565b60015481565b6000600c60009054906101000a900473ffffffffffffffffffffffffffffffffffffffff1673ffffffffffffffffffffffffffffffffffffffff16631b8b4fc8600754600154600854600354600454426040518763ffffffff167c0100000000000000000000000000000000000000000000000000000000028152600401808781526020018681526020018581526020018481526020018381526020018281526020019650505050505050602060405180830381600087803b158015610e9957600080fd5b505af1158015610ead573d6000803e3d6000fd5b505050506040513d6020811015610ec357600080fd5b8101908080519060200190929190505050905090565b600b60009054906101000a900473ffffffffffffffffffffffffffffffffffffffff1681565b60065481565b600060011515600c60149054906101000a900460ff161515141515610f2957600080fd5b6000600154111515610f3a57600080fd5b6000600a60003373ffffffffffffffffffffffffffffffffffffffff1673ffffffffffffffffffffffffffffffffffffffff16815260200190815260200160002054111515610f8857600080fd5b600a60003373ffffffffffffffffffffffffffffffffffffffff1673ffffffffffffffffffffffffffffffffffffffff1681526020019081526020016000205490506000600a60003373ffffffffffffffffffffffffffffffffffffffff1673ffffffffffffffffffffffffffffffffffffffff168152602001908152602001600020819055503373ffffffffffffffffffffffffffffffffffffffff166108fc829081150290604051600060405180830381858888f19350505050158015611055573d6000803e3d6000fd5b507f0e2d58f9bb8ea5872a68567e57e08920debc589ea44b350687701f6577e71928338242604051808473ffffffffffffffffffffffffffffffffffffffff1673ffffffffffffffffffffffffffffffffffffffff168152602001838152602001828152602001935050505060405180910390a150565b600a6020528060005260406000206000915090505481565b60025481565b6009818154811015156110f957fe5b90600052602060002090600402016000915090508060000154908060010154908060020154908060030160009054906101000a900473ffffffffffffffffffffffffffffffffffffffff16905084565b600d5481565b60007f450be37bc096ff38c807e9190d666d7af717fa011ad981aa74609c6ff89cf3956001546003546002546004546005546007546009805490506040518088815260200187815260200186815260200185815260200184815260200183815260200182815260200197505050505050505060405180910390a1600154905090565b600c60149054906101000a900460ff1681565b6000600980549050905090565b60055481565b6000600b60009054906101000a900473ffffffffffffffffffffffffffffffffffffffff1673ffffffffffffffffffffffffffffffffffffffff1663bbe4fd506040518163ffffffff167c0100000000000000000000000000000000000000000000000000000000028152600401602060405180830381600087803b15801561127f57600080fd5b505af1158015611293573d6000803e3d6000fd5b505050506040513d60208110156112a957600080fd5b81019080805190602001909291905050506004541115905090565b60011515600c60149054906101000a900460ff1615151415156112e657600080fd5b60055434101515156112f757600080fd5b600015156113036111f7565b151514151561131157600080fd5b6009608060405190810160405280600154815260200183815260200160055481526020013373ffffffffffffffffffffffffffffffffffffffff168152509080600181540180825580915050906001820390600052602060002090600402016000909192909190915060008201518160000155602082015181600101556040820151816002015560608201518160030160006101000a81548173ffffffffffffffffffffffffffffffffffffffff021916908373ffffffffffffffffffffffffffffffffffffffff16021790555050505060065460076000828254019250508190555060065434036008600082825401925050819055507fb985a4060c75282bbeae9c8d9b8190f8345529ac16018de5ad40a468f79e75ee3382600154600554600754604051808673ffffffffffffffffffffffffffffffffffffffff1673ffffffffffffffffffffffffffffffffffffffff1681526020018581526020018481526020018381526020018281526020019550505050505060405180910390a1505600a165627a7a723058201aa12468cafd278cf8433b681a68de31a6d77b3febdda8116663bd3fca4e0a660029",
  "source": "pragma solidity ^0.4.23;\r\n\r\nimport \"./Clock.sol\";\r\nimport \"./Random.sol\";\r\n\r\ncontract LotteryContract\r\n{\r\n    // Struct\r\n    struct Lottery \r\n    {\r\n        uint campaignId;\r\n        uint number;\r\n        uint price;\r\n        address lotteryOwner;\r\n    }\r\n    // Struct\r\n\r\n    // Event\r\n    event EventSetupFirstTimeFinish(address contractOwner, bool isContractUnlocked);\r\n    event EventFoundWinner(address winner, uint lotteryNumber, uint campaignId);\r\n    event EventBoughtTicket(address buyer, uint lotteryNumber, uint campaignId, uint ticketPrice, uint totalLotteryAmount);\r\n    event EventStartNewCampaign(uint campaignId, uint campaignStartTime, uint campaignDuration , uint ticketPrice);\r\n    event EventStopCurrentCampaign(uint campaignId, uint stopTime, uint totalAmount);\r\n    event EventWinnerWithdrawMoney(address winner, uint amount, uint withdrawTime);\r\n    event EventDeveloperWithdrawMoney(address developerAddress, uint amount, uint withdrawTime);\r\n    event EventFoundRandomNumber(uint campaignId, uint randomNumber, uint time);\r\n    event EventGetAllInfo(uint campaignId, uint campaignStartTime, uint campaignDuration, uint campaignEndTime, uint campaignTicketPrice, uint campaignTotalAmount, uint lotteryCount);\r\n    event EventFallback(address sender, uint amount);\r\n    // Event\r\n\r\n\r\n    // Variable\r\n    // Public\r\n    address public owner;\r\n\r\n    uint public campaignId = 0;\r\n    uint public campaignDuration;\r\n    uint public campaignStartTime;\r\n    uint public campaignEndTime;\r\n    uint public campaignTicketPrice;\r\n    uint public actualTicketPrice;\r\n    uint public totalWinningAmount;\r\n    uint public totalMaintananceAmount;\r\n    \r\n    Lottery[] public allLottery;\r\n    mapping(address => uint) public winnerBalances;\r\n\r\n    Clock public clock;\r\n    Random public random;\r\n    // Public\r\n\r\n\r\n    // Private\r\n    bool public isContractUnlocked = false;\r\n    uint public totalFromFallback;\r\n    // Private\r\n    // Variable\r\n\r\n\r\n    // Constructor\r\n    constructor(address _clockAddress, address _randomAddress) public \r\n    {\r\n        owner = msg.sender;\r\n        clock = Clock(_clockAddress);\r\n        random = Random(_randomAddress);\r\n\r\n        campaignDuration = 3 days;\r\n        campaignTicketPrice = 0.01 ether;\r\n        actualTicketPrice = 0.009 ether;\r\n    }\r\n    // Constructor\r\n\r\n    // Modifier\r\n    modifier onlyOwner() \r\n    {\r\n        require(msg.sender == owner);\r\n        _;\r\n    }\r\n\r\n    modifier onlyAfterContractUnlock()\r\n    {\r\n        require(isContractUnlocked == true);\r\n        _;\r\n    }\r\n    // Modifier\r\n\r\n    // Function\r\n    function setupContractFirstTime() external onlyOwner\r\n    {\r\n        require(campaignId == 0);\r\n        isContractUnlocked = true;  \r\n\r\n        emit EventSetupFirstTimeFinish(msg.sender, isContractUnlocked);\r\n    }\r\n\r\n    function startNewCampaign() external onlyOwner onlyAfterContractUnlock returns(bool)\r\n    {\r\n        require(_isCampaignEnd() == true);\r\n\r\n        require(campaignDuration > 0);\r\n        require(campaignTicketPrice > 0);\r\n\r\n        campaignId++;\r\n        require(campaignId > 0);\r\n\r\n        campaignStartTime = clock.getNow();\r\n        campaignEndTime = clock.getNow() + campaignDuration;\r\n\r\n        emit EventStartNewCampaign(campaignId, campaignStartTime, campaignDuration, campaignTicketPrice);\r\n\r\n        return true;\r\n    }\r\n\r\n    function buyLottery(uint _lotteryNumber) external payable onlyAfterContractUnlock\r\n    {\r\n        require(msg.value >= campaignTicketPrice);\r\n        require(_isCampaignEnd() == false);\r\n\r\n        allLottery.push(Lottery(campaignId, _lotteryNumber, campaignTicketPrice, msg.sender));\r\n\r\n        totalWinningAmount += actualTicketPrice;\r\n        totalMaintananceAmount += (msg.value - actualTicketPrice);\r\n\r\n        emit EventBoughtTicket(msg.sender, _lotteryNumber, campaignId, campaignTicketPrice, totalWinningAmount);\r\n    }\r\n\r\n    function withdrawWinnerMoney() external onlyAfterContractUnlock\r\n    {\r\n        require(campaignId > 0);\r\n        require(winnerBalances[msg.sender] > 0);\r\n\r\n        uint balance = winnerBalances[msg.sender];\r\n        winnerBalances[msg.sender] = 0;\r\n        msg.sender.transfer(balance);\r\n\r\n        emit EventWinnerWithdrawMoney(msg.sender, balance, now);\r\n    }\r\n\r\n    function withdrawDeveloperMoney(address _developerAddress) external onlyOwner \r\n    {\r\n        require(_developerAddress != address(0));\r\n        require(totalMaintananceAmount > 0);\r\n\r\n        uint balance = totalMaintananceAmount;\r\n        totalMaintananceAmount = 0;\r\n        _developerAddress.transfer(balance);\r\n\r\n        emit EventDeveloperWithdrawMoney(_developerAddress, balance, now);\r\n    }\r\n\r\n    function getCurrentCampaignInfo() external view returns(uint)\r\n    {\r\n        emit EventGetAllInfo(campaignId, campaignStartTime, campaignDuration, campaignEndTime, campaignTicketPrice, totalWinningAmount, allLottery.length);\r\n        return campaignId;\r\n    }\r\n\r\n    function() public payable \r\n    {\r\n        totalFromFallback += msg.value;\r\n        emit EventFallback(msg.sender, msg.value);\r\n    }\r\n    \r\n    function updateTicketPrice(uint _newPrice, uint _newActualPrice) external onlyOwner \r\n    {\r\n        require(_isCampaignEnd() == true);\r\n\r\n        campaignTicketPrice = _newPrice;\r\n        actualTicketPrice = _newActualPrice;\r\n    }\r\n\r\n    function updateCampaignDuration(uint _newDuration) external onlyOwner \r\n    {\r\n        campaignDuration = _newDuration;\r\n    }\r\n\r\n    function _randomWinner() private \r\n    {\r\n        // pick 6 pair of numbers\r\n        uint winningNumber = 0;\r\n        winningNumber = _findWinningNumber();\r\n        \r\n        // if someone's number is correct, then deposit the amount to that address\r\n        // find how many winners in this campaign\r\n        uint count = 0;\r\n        count = _countWinners(winningNumber);\r\n\r\n        if(count > 0)\r\n        {\r\n            // if there is Winners, we will assign the amount to each winner, and reset the amount back to Zero\r\n            uint amountToEachBuyer = 0;\r\n            amountToEachBuyer = totalWinningAmount / count;\r\n           \r\n            // find Winners\r\n            address[] memory winnerAddresses = new address[](count);\r\n            uint winnerCount = 0;\r\n            for(uint i = 0; i < allLottery.length; i++ )\r\n            {\r\n                if(allLottery[i].number == winningNumber)\r\n                {\r\n                    winnerAddresses[winnerCount] = allLottery[i].lotteryOwner;\r\n                    winnerCount++;\r\n\r\n                    if(winnerCount > count)\r\n                    {\r\n                        break;\r\n                    }\r\n                }\r\n            }\r\n\r\n            // RESET TOTAL AMOUNT TO ZERO, CAUSE THERE IS WINNERS.\r\n            totalWinningAmount = 0;\r\n\r\n            // assign amount to each Winner\r\n            for(uint j = 0; j < winnerAddresses.length; j++)\r\n            {\r\n                winnerBalances[winnerAddresses[j]] += amountToEachBuyer;\r\n            }\r\n\r\n        }\r\n        else\r\n        {\r\n             // if count = 0, there is no Winner, so that we keep the total amount accumulated to the next campaign\r\n        }\r\n\r\n\r\n        // START A NEW CAMPAIGN ???\r\n    }\r\n\r\n    function _isCampaignEnd() public view returns(bool)\r\n    {\r\n        return campaignEndTime <= clock.getNow();\r\n    }\r\n\r\n    function _countWinners(uint _winningNumber) internal view returns(uint)\r\n    {\r\n        uint winnerCount = 0;\r\n        \r\n        for(uint i = 0; i < allLottery.length; i++ )\r\n        {\r\n            if(allLottery[i].number == _winningNumber)\r\n            {\r\n                winnerCount++;\r\n            }\r\n        }\r\n        \r\n        return winnerCount;\r\n    }\r\n\r\n    function _findWinningNumber() public view returns (uint) \r\n    {\r\n        //uint rand = 0;\r\n        //uint minExpected = 99999;\r\n\r\n        //while(rand <= minExpected)\r\n        //{\r\n        //rand = random.getRandomNumber(totalWinningAmount, campaignId, totalMaintananceAmount, campaignStartTime, campaignEndTime, now);\r\n        //}\r\n\r\n        return random.getRandomNumber(totalWinningAmount, campaignId, totalMaintananceAmount, campaignStartTime, campaignEndTime, now);\r\n    }\r\n\r\n    function _getTicketCount() public view returns(uint)\r\n    {\r\n        return allLottery.length;\r\n    }\r\n    // Function\r\n\r\n}",
  "sourcePath": "D:\\ETH All\\BitLott2\\BitLottery\\contracts\\LotteryContract.sol",
  "compiler": {
    "name": "solc",
    "version": "0.4.24+commit.e67f0147.Emscripten.clang"
  },
  "schemaVersion": "2.0.0",
  "updatedAt": "2018-07-02T11:16:04.518Z"
}