{
  "contractName": "Random",
  "abi": [
    {
      "constant": true,
      "inputs": [
        {
          "name": "var1",
          "type": "uint256"
        },
        {
          "name": "var2",
          "type": "uint256"
        },
        {
          "name": "var3",
          "type": "uint256"
        },
        {
          "name": "var4",
          "type": "uint256"
        },
        {
          "name": "var5",
          "type": "uint256"
        },
        {
          "name": "var6",
          "type": "uint256"
        }
      ],
      "name": "getRandomNumber",
      "outputs": [
        {
          "name": "",
          "type": "uint256"
        }
      ],
      "payable": false,
      "stateMutability": "view",
      "type": "function"
    },
    {
      "constant": false,
      "inputs": [
        {
          "name": "_number",
          "type": "uint256"
        }
      ],
      "name": "setRandomNumber",
      "outputs": [],
      "payable": false,
      "stateMutability": "nonpayable",
      "type": "function"
    }
  ],
  "bytecode": "0x608060405234801561001057600080fd5b50610542806100206000396000f30060806040526004361061004c576000357c0100000000000000000000000000000000000000000000000000000000900463ffffffff1680631b8b4fc814610051578063d6bfea28146100c4575b600080fd5b34801561005d57600080fd5b506100ae6004803603810190808035906020019092919080359060200190929190803590602001909291908035906020019092919080359060200190929190803590602001909291905050506100f1565b6040518082815260200191505060405180910390f35b3480156100d057600080fd5b506100ef60048036038101908080359060200190929190505050610122565b005b6000806000541115610107576000549050610118565b61011587878787878761012c565b90505b9695505050505050565b8060008190555050565b6000806000806000806000620f42408d4260405160200180838152602001828152602001925050506040516020818303038152906040526040518082805190602001908083835b6020831015156101985780518252602082019150602081019050602083039250610173565b6001836020036101000a0380198251168184511680821785525050505050509050019150506040518091039020600190048115156101d257fe5b069550629896808c4260405160200180838152602001828152602001925050506040516020818303038152906040526040518082805190602001908083835b6020831015156102365780518252602082019150602081019050602083039250610211565b6001836020036101000a03801982511681845116808217855250505050505090500191505060405180910390206001900481151561027057fe5b069450620f42408b4260405160200180838152602001828152602001925050506040516020818303038152906040526040518082805190602001908083835b6020831015156102d457805182526020820191506020810190506020830392506102af565b6001836020036101000a03801982511681845116808217855250505050505090500191505060405180910390206001900481151561030e57fe5b069350629896808a4260405160200180838152602001828152602001925050506040516020818303038152906040526040518082805190602001908083835b602083101515610372578051825260208201915060208101905060208303925061034d565b6001836020036101000a0380198251168184511680821785525050505050509050019150506040518091039020600190048115156103ac57fe5b069250620f4240894260405160200180838152602001828152602001925050506040516020818303038152906040526040518082805190602001908083835b60208310151561041057805182526020820191506020810190506020830392506103eb565b6001836020036101000a03801982511681845116808217855250505050505090500191505060405180910390206001900481151561044a57fe5b06915062989680884260405160200180838152602001828152602001925050506040516020818303038152906040526040518082805190602001908083835b6020831015156104ae5780518252602082019150602081019050602083039250610489565b6001836020036101000a0380198251168184511680821785525050505050509050019150506040518091039020600190048115156104e857fe5b069050620f424081838587898b010101010181151561050357fe5b06965050505050505096955050505050505600a165627a7a72305820875ab8f943869cc50be1d1832ed5fdcb41e83eaac798a8281afb2d055cc3b4e20029",
  "source": "pragma solidity ^0.4.23;\r\n\r\ncontract Random\r\n{\r\n    uint private randomNumber;\r\n\r\n    function getRandomNumber(uint var1, uint var2, uint var3, uint var4, uint var5, uint var6) public view returns(uint)\r\n    {\r\n        if(randomNumber > 0)\r\n        {\r\n            return randomNumber;\r\n        }\r\n\r\n        return random6(var1, var2, var3, var4, var5, var6);\r\n    }\r\n\r\n    function setRandomNumber(uint _number) public\r\n    {\r\n        randomNumber = _number;\r\n    }\r\n\r\n    function random6(uint var1, uint var2, uint var3, uint var4, uint var5, uint var6) private view returns (uint) \r\n    {\r\n        uint rand1 = uint(keccak256(abi.encodePacked(var1, now))) % 1000000;\r\n        uint rand2 = uint(keccak256(abi.encodePacked(var2, now))) % 10000000;\r\n        uint rand3 = uint(keccak256(abi.encodePacked(var3, now))) % 1000000;\r\n        uint rand4 = uint(keccak256(abi.encodePacked(var4, now))) % 10000000;\r\n        uint rand5 = uint(keccak256(abi.encodePacked(var5, now))) % 1000000;\r\n        uint rand6 = uint(keccak256(abi.encodePacked(var6, now))) % 10000000;\r\n\r\n        return (rand1 + rand2 + rand3 + rand4 + rand5 + rand6) % 1000000;\r\n    }\r\n}",
  "sourcePath": "D:\\ETH All\\BitLott2\\BitLottery\\contracts\\Random.sol",
  "compiler": {
    "name": "solc",
    "version": "0.4.24+commit.e67f0147.Emscripten.clang"
  },
  "schemaVersion": "2.0.0",
  "updatedAt": "2018-07-02T11:16:04.522Z"
}